:020000040800F2
:1000000000040020B9020008C9020008CD0200085F
:10001000D1020008D5020008D90200080000000043
:10002000000000000000000000000000DD020008E9
:10003000E102000800000000E5020008E9020008F3
:10004000ED020008F1020008F5020008F9020008BC
:10005000FD02000801030008050300080903000869
:100060000D03000811030008150300081903000818
:100070001D030008210300082503000829030008C8
:100080002D03000831030008350300083903000878
:100090003D03000841030008450300084903000828
:1000A0004D030008510300085503000859030008D8
:1000B0005D03000861030008650300086903000888
:1000C0006D03000871030008750300087903000838
:1000D0007D030008810300088503000889030008E8
:1000E0008D030008910300089503000880B500F017
:1000F0002DF800F014F83A48016851F400510160FD
:10010000002238498A4201D2521CFAE7026852F0B2
:100110000052026000208842EDD2401CFBE73249C9
:10012000086850F0100008603048016831F4801110
:100130000160016851F400110160016831F480012F
:100140000160016831F400010160704728480168CE
:1001500051F480310160016826490A6832F01002CA
:100160000A600A6852F010020A600A68D208D200D7
:100170000A600A6852F004020A601F490A6832F0F5
:10018000F0020A600A680A600A6832F460520A6083
:100190000A680A600A6832F4E0620A600A6852F487
:1001A00080620A600A6832F47C120A600A6852F4BB
:1001B000E8120A60026852F08072026002689201DE
:1001C000FCD50868800880000860086850F00200CC
:1001D0000860086810F00C000828FAD17047000089
:1001E00010100140D0DD060018100240041001403C
:1001F0000010024000200240041002400F4908682D
:1002000050F0010008600E4A13680E480340136066
:100210000B680D4803400B60086830F480200860CC
:10022000106830F4FE0010605FF41F0107480160A1
:100230005FF0006106480160704700000010024056
:10024000041002400000FFF8FFFFF6FE0810024015
:1002500008ED00E000F00DF8002801D0AFF30080B9
:10026000AFF300800020AFF30080FFF73FFF00F006
:1002700002F80120704700F001B800000746384638
:1002800000F002F8FBE7000080B5AFF30080024AFF
:1002900011001820ABBEFBE726000200054801460E
:1002A00003B4684680F30988AFF30080AFF30080A1
:1002B000FFF7D0FFA5EDF5FE014880470148004754
:1002C000FD0100089D020008FFF7FEBFFFF7FEBF1B
:1002D000FFF7FEBFFFF7FEBFFFF7FEBFFFF7FEBF52
:1002E000FFF7FEBFFFF7FEBFFFF7FEBFFFF7FEBF42
:1002F000FFF7FEBFFFF7FEBFFFF7FEBFFFF7FEBF32
:10030000FFF7FEBFFFF7FEBFFFF7FEBFFFF7FEBF21
:10031000FFF7FEBFFFF7FEBFFFF7FEBFFFF7FEBF11
:10032000FFF7FEBFFFF7FEBFFFF7FEBFFFF7FEBF01
:10033000FFF7FEBFFFF7FEBFFFF7FEBFFFF7FEBFF1
:10034000FFF7FEBFFFF7FEBFFFF7FEBFFFF7FEBFE1
:10035000FFF7FEBFFFF7FEBFFFF7FEBFFFF7FEBFD1
:10036000FFF7FEBFFFF7FEBFFFF7FEBFFFF7FEBFC1
:10037000FFF7FEBFFFF7FEBFFFF7FEBFFFF7FEBFB1
:10038000FFF7FEBFFFF7FEBFFFF7FEBFFFF7FEBFA1
:08039000FFF7FEBFFFF7FEBFFF
:040000050800029D50
:00000001FF
