:020000040800F2
:1000000000040020B1030008C1030008C503000874
:10001000C9030008CD030008D10300080000000058
:10002000000000000000000000000000D5030008F0
:10003000D903000800000000DD030008E103000808
:10004000E5030008E9030008ED030008F1030008D8
:10005000F5030008F90300084B010008FD03000840
:100060000104000805040008090400080D04000844
:100070001104000815040008190400081D040008F4
:100080002104000825040008290400082D040008A4
:100090003104000835040008390400083D04000854
:1000A0004104000845040008490400084D04000804
:1000B0005104000855040008590400085D040008B4
:1000C0006104000865040008690400086D04000864
:1000D0007104000875040008790400087D04000814
:1000E000810400088504000889040008010049B261
:1000F000002909D4012210F01F018A406D4B010034
:1001000049B2490943F82120704710B4020052B2A5
:10011000002A05D40C01684B020052B29C5408E03E
:100120000A01664C03005BB213F00F03234403F88B
:10013000042C10BC704780B500F072F800F059F83C
:1001400000F03BF800F019F8FEE75D49086850F050
:10015000010008600868C0070ED55A48016851F0D0
:1001600000510160002258498A4201D2521CFAE72C
:10017000016851F400510160704780B5504908682A
:1001800050F0010008605149086850F00100086013
:100190004F49086808604F49086850F0040008603B
:1001A0004D49086850F0010008600620FFF79EFFE7
:1001B00000210620FFF7A9FF01BD4649086850F05D
:1001C0000400086045480168490849000160016869
:1001D00031F002010160016831F004010160016841
:1001E00051F0080101603E49086850F48030086011
:1001F00070473849086850F01000086039480168B5
:1002000031F480110160016851F40011016001684E
:1002100031F480010160016831F400010160704730
:100220003148016851F48031016001682F490A6842
:1002300032F010020A600A6852F010020A600A687E
:10024000D208D2000A600A6852F004020A60284903
:100250000A6832F0F0020A600A680A600A6832F43A
:1002600060520A600A680A600A6832F4E0620A6052
:100270000A6852F480620A600A6832F47C120A60EA
:100280000A6852F4E8120A60026852F08072026052
:1002900002689201FCD50868800880000860086840
:1002A00050F002000860086810F00C000828FAD12D
:1002B0007047000000E100E000E400E018ED00E01D
:1002C000140401401010014020AA44000004014021
:1002D00008000140181002400C04014000080140D1
:1002E00010080140041001400010024000200240AC
:1002F000041002400F49086850F0010008600E4ADF
:1003000013680E48034013600B680D4803400B60F0
:10031000086830F480200860106830F4FE00106037
:100320005FF41F01074801605FF00061064801604B
:100330007047000000100240041002400000FFF867
:10034000FFFFF6FE0810024008ED00E000F00DF897
:10035000002801D0AFF30080AFF300800020AFF39E
:100360000080FFF7E8FE00F002F80120704700F07F
:1003700001B800000746384600F002F8FBE700002D
:1003800080B5AFF30080024A11001820ABBEFBE736
:10039000260002000548014603B4684680F3098838
:1003A000AFF30080AFF30080FFF7D0FFA5EDF5FEBF
:1003B0000148804701480047F502000895030008FE
:1003C000FFF7FEBFFFF7FEBFFFF7FEBFFFF7FEBF61
:1003D000FFF7FEBFFFF7FEBFFFF7FEBFFFF7FEBF51
:1003E000FFF7FEBFFFF7FEBFFFF7FEBFFFF7FEBF41
:1003F000FFF7FEBFFFF7FEBFFFF7FEBFFFF7FEBF31
:10040000FFF7FEBFFFF7FEBFFFF7FEBFFFF7FEBF20
:10041000FFF7FEBFFFF7FEBFFFF7FEBFFFF7FEBF10
:10042000FFF7FEBFFFF7FEBFFFF7FEBFFFF7FEBF00
:10043000FFF7FEBFFFF7FEBFFFF7FEBFFFF7FEBFF0
:10044000FFF7FEBFFFF7FEBFFFF7FEBFFFF7FEBFE0
:10045000FFF7FEBFFFF7FEBFFFF7FEBFFFF7FEBFD0
:10046000FFF7FEBFFFF7FEBFFFF7FEBFFFF7FEBFC0
:10047000FFF7FEBFFFF7FEBFFFF7FEBFFFF7FEBFB0
:0C048000FFF7FEBFFFF7FEBFFFF7FEBF57
:040000050800039557
:00000001FF
